:02000000622B71
:10000600423083120313FD00FD0B07280000080091
:0A00160000000000000000000800D8
:100020001D3083120313FC009130FD00FD0B1628D8
:06003000FC0B162808007D
:1000360083160317B91B2328831203138611262858
:1000460083120313861583160317391B2E28831272
:10005600031306113128831203130615831603179B
:10006600B91A39288312031386103C288312031306
:10007600861483160317391A4428831203130610AD
:1000860047288312031306148316031727184F28CD
:10009600831203138616522883120313861206163A
:1000A6000B20061283160317B9195D288312031352
:1000B60086116028831203138615831603173919D0
:1000C60068288312031306116B288312031306157F
:1000D60083160317B918732883120313861076281C
:1000E6008312031386148316031739187E28831286
:1000F60003130610812883120313061483160317AD
:10010600271889288312031386168C288312031353
:10011600861206160B20061283160317271C95282F
:080126001020962803200800B8
:10012E0083120313F801F9011030FC00710DF80D64
:10013E00F90D7408F8027508031C750FF9020318FF
:10014E00AF287408F80775080318750FF907031020
:0A015E00F00DF10DFC0B9D280800C8
:1001680083160317B701053037020318C22837086A
:100178003607840020308000B70AB72837083607CA
:1001880084008001B70337083607B8000A30F40046
:10019800F5013408F0003508F10097207808F000E0
:1001A8007908F1003030F007831603173808840007
:1001B800700880000A30F400F5013408F0003508B2
:1001C800F1009720700883160317B4007108B50072
:1001D80000307106031DF22800307006031DF52853
:0801E800F728B703C72808003F
:0E01F0001D3083120313FD00FD0BFC280800D8
:1001FE0083160313981805290000FF2803173408E7
:08020E0083120313990008009C
:100216008316031727103408B9001B20831603170B
:040226002714080091
:0E022A00831603172A088A002908820008009C
:1002380083160317AC01AD012B08F2002B08F3005D
:10024800720884000008203A031D2F292C082D0469
:10025800031D2F293C290130AC000030AD00720885
:1002680084000008F0007308840070088000F30A16
:100278007208F100F20A710884000008003A031DB0
:0802880024292B08F0000800F6
:10029000831603138813831288135E30FC008030AA
:1002A000FD00FD0B5129FC0B512900008817273058
:1002B000FD00FD0B59290000000083168817080077
:1002C0007229803083160317AB008529C030AB003C
:1002D00085299430AB008529D430AB008529803046
:1002E000AB008529831603172B08013A03196129EE
:1002F0002B08023A031966292B08033A03196929C6
:100300002B08043A03196C296F292C03F0002B08E1
:10031000F0077008AB007008B9001B2083160317A4
:100320002710AE012E082D07840000080319A0290C
:100330002E082D0784000008B4000B21AE0A922974
:040340002714080076
:100344008316031398169030831298008316871728
:10035400071383128C1EB1291A08F000AB29080078
:1003640083160317B001B1012B08B2002C08B300A7
:1003740080302C06F00080307002031DC329003049
:100384002B020318D1290130B0000030B1002B0832
:10039400003CB2002C08031C013EB301B302320836
:1003A400B4003308B5002D08B600B4200630AE0002
:1003B4000030AF002F08003C031DE2292E08003C4A
:1003C4000318FD292E082D07F20001302E02F0003B
:1003D4000030031C013E2F02F10070082D07840039
:1003E4000008F00072088400700880000130AE023A
:1003F400031CAF03DC292D08840020308000300862
:10040400310403191B2AAE01AF012E082D07840005
:100414000008203A031D122AAE0A0319AF0A072A5C
:100424000130AE02031CAF032E082D0784002D30CB
:04043400800008003C
:1004380083160317A8013530FD00FD0B212A83120E
:100448000313881B362A6A30FD00FD0B292A000099
:10045800881F322A013083160317A8003530FD00A3
:06046800FD0B342A080020
:10046E00831203139F01C0309F046E09F0007008C1
:10047E0083169F051F179F1703172B08F000F00D0B
:10048E007010F00D7010F00D7010700883120313C1
:10049E009F041F14F8201F151F1D572A0000532AF2
:1004AE001F101E08F100F00183161E08F004003024
:0404BE00F10408003D
:1004C200FF3083160317A400FF30A500FF30A600FB
:1004D200FF30831203139F01C0309F046E09F000A6
:1004E200700883169F051F179F1783121F14080099
:1004F20083160317AD012B0884000008AC002C08FA
:10050200003A0319902A2C08B400FF20831603171F
:10051200AD0A2D082B0784000008AC00802A0800D1
:1005220083120313F301083073020318CA2A881BCB
:100532009B2A982A2730FD00FD0B9D2A000000000F
:10054200881BB52A7308073CF0007008F1000130DF
:10055200F00071080319B12AF00D7010FF3EAB2AAA
:10056200F0097008F205C82A7308073CF000700809
:10057200F1000130F00071080319C32AF00D701068
:10058200FF3EBD2A7008F204881FC82AC52AF30A52
:08059200942A7208F000080031
:10059A008316031306128612061086100611861198
:1005AA008312061286128611061186100610102072
:1005BA00102010208614061406160B20061210208E
:1005CA0006160B200612102006160B200612102003
:1005DA00061006160B200612102006160B2006120D
:1005EA008610861506160B20061210208611061490
:1005FA0006160B200612061006160B2006121020ED
:10060A0006160B200612061406160B2006121020D8
:10061A00061006160B2006128615061586140614F1
:10062A0006160B200612102083160317271408003B
:10063A002F2B803083160317AB00422BC030AB0040
:10064A00422B9430AB00422BD430AB00422B80308B
:10065A00AB00422B831603172B08013A03191E2BF2
:10066A002B08023A0319232B2B08033A0319262BCA
:10067A002B08043A0319292B2C2B2C03F0002B08E6
:10068A00F0077008AB0027147008B9001B20831606
:10069A00031727102D08B9001B20831603172714E8
:0206AA00080046
:1006AC0015218A110A128000840AA90A0319AA0AC0
:0806BC00F003031D562B08009A
:1006C4003E27831603138710071187118712881397
:1006D4008801831288010E3083169F0005140714C5
:1006E400071687176122CD220130B9001B200C3078
:1006F40083160317B9001B20013083160317AB00C0
:100704000630AC009030AD0060210230AB00013007
:10071400AC004030AD0060218312031387161530FE
:10072400FB004B30FC00BE30FD00FD0B972BFC0B97
:10073400972BFB0B972B0000013083160317B9008E
:100744001B20013083160317AB000130AC0051307D
:10075400AD0060210B30FB002630FC005D30FD0055
:10076400FD0BB22BFC0BB22BFB0BB22B00000000D9
:100774000130B9001B206730831699001815A22197
:10078400A03083160317AB0079220230FB0004303B
:10079400FC00BA30FD00FD0BCD2BFC0BCD2BFB0B6D
:1007A400CD2B00008312031387141530FB004B304C
:1007B400FC00BE30FD00FD0BDD2BFC0BDD2BFB0B29
:1007C400DD2B000087101530FB004B30FC00BE30E1
:1007D400FD00FD0BEB2BFC0BEB2BFB0BEB2B0000C1
:1007E40048211C22831603172808013A031D2B2EC7
:1007F40091227008831603179900912270088316BA
:10080400EF00912270080317EF0091227008EF00A7
:10081400912270080317EB00EC01831603136F0891
:1008240003171907F000F1010318F10A83126F0886
:10083400F0070318F10A03136F08F0070318F10A0D
:10084400FF307005F2007108F3000030F305031760
:100854006C087306031D302C72086B06031DF42C00
:100864006F0883160313EB00EC0103171908031335
:10087400ED00EE0101300317B9001B20013083168F
:100884000317AB000630AC002030AD00602101300E
:10089400AB000C30AC000A30F4000030F500031358
:1008A4006B08F0006C08F10097200A30F400003067
:1008B400F50097207808F0007908F1007008303EC0
:1008C40083160317AD001D230130AB000D30AC00BF
:1008D4000A30F4000030F50003136B08F0006C08D4
:1008E400F10097207808F0007908F1007008303E94
:1008F40083160317AD001D230230AB000630AC0095
:100904003330AD0060210230AB000D30AC000A3052
:10091400F4000030F50003136D08F0006E08F100D8
:1009240097200A30F4000030F50097207808F00092
:100934007908F1007008303E83160317AD001D23BB
:100944000230AB000E30AC000A30F4000030F50089
:1009540003136D08F0006E08F10097207808F0008A
:100964007908F1007008303E83160317AD001D238B
:100974001530FB004B30FC00BE30FD00FD0BC02CDD
:10098400FC0BC02CFB0BC02C000003136C08003CB8
:10099400031DCE2C6B08643C0318F42C01300317A0
:1009A400B9001B20013083160317AB000230AC00E2
:1009B4003B30AD0060210230AB000330AC00273087
:1009C400AD0060211530FB004B30FC00BE30FD0053
:1009D400FD0BEA2CFC0BEA2CFB0BEA2C000001308B
:1009E400B9001B20013083160317AB0037227008AF
:1009F40083120317ED007108EE009A308316AB00E2
:100A04001C217008AD0083126D088316AB0083129D
:100A14006E088316AC00B22183120313071E422D05
:100A2400803003176E06F00080307002031D1C2D09
:100A34006E306D020318422D01308316B9001B205D
:100A4400013083160317AB000230AC001C30AD003C
:100A540060210230AB000230AC00E230AD00602116
:100A64001530FB004B30FC00BE30FD00FD0B382D73
:100A7400FC0B382DFB0B382D00000130B9001B2076
:100A84000313071A912D8030F000803003176E068F
:100A94007002031D4F2D6D086E3C0318912D01301B
:100AA4008316B9001B20013083160317AB000430F2
:100AB400AC001030AD0060211530FB004B30FC0061
:100AC400BE30FD00FD0B642DFC0B642DFB0B642D6F
:100AD40000000130B9001B20013083160317AB005E
:100AE4000230AC002330AD0060210230AB00043092
:100AF400AC004A30AD0060215330AB007922153090
:100B0400FB004B30FC00BE30FD00FD0B872DFC0BC1
:100B1400872DFB0B872D00000130B9001B20031328
:100B2400071ADE2D803003176E06F0008030700245
:100B3400031D9E2D6E306D020318DE2D01308316C9
:100B4400B9001B20013083160317AB000430AC003E
:100B54002F30AD0060210230AB000230AC003B30DE
:100B6400AD006021B330AB007922831203138714E4
:100B740007150B30FB002630FC005D30FD00FD0B3B
:100B8400C12DFC0BC12DFB0BC12D000000008710F3
:100B940007110B30FB002630FC005D30FD00FD0B1F
:100BA400D12DFC0BD12DFB0BD12D00000000013009
:100BB40083160317B9001B200313071E2B2E803046
:100BC400F000803003176E067002031DEB2D6D08D4
:100BD4006E3C03182B2E01308316B9001B20013004
:100BE40083160317AB000230AC006230AD00602105
:100BF4000230AB000230AC00C530AD006021D23011
:100C0400AB00792283120313871407150B30FB0002
:100C14002630FC005D30FD00FD0B0E2EFC0B0E2E6D
:100C2400FB0B0E2E00000000871007110B30FB0099
:100C34002630FC005D30FD00FD0B1E2EFC0B1E2E2D
:100C4400FB0B1E2E00000000013083160317B900B1
:100C54001B201530FB004B30FC00BE30FD00FD0BAB
:100C6400312EFC0B312EFB0B312E0000D42B392EF0
:100E7C0020308400423083120313F0009A30831622
:100E8C000317A9000630AA005623A03084001330A3
:100E9C000313F0000B3083160317A9000730AA00C8
:100EAC005623623084000C300313F0001E3083167E
:100EBC000317A9000730AA005623B33084002F3043
:100ECC000313F000DC3083160317A9000630AA00C8
:100EDC0056236E30840001300313F0003C3083162F
:100EEC000317A9000730AA005623E230840009300A
:100EFC000313F000333083160317A9000730AA0040
:100F0C0056231030831784005B300313F0003F30FE
:100F1C0083160317A9000630AA00562383139030BA
:100F2C008317840009300313F0002A30831603174B
:0C0F3C00A9000730AA0056238313080008
:100C7E00213421345734613472346E3469346E3415
:080C8E006734213421340034E5
:0E0C96004E346F3420344734613473340034EC
:100CA40047346134733420342634203446346C346D
:080CB40061346D346534003435
:100CBC00213421345734613472346E3469346E34D7
:080CCC006734213421340034A7
:100CD40046346C3461346D346534203444346534C2
:0E0CE40074346534633474346534643400341D
:100CF2004434653474346534633474346534643430
:020D02000034BB
:100D040047346134733420342634203446346C340C
:100D140061346D346534203444346534743465345A
:100D2400633474346534643420340D340A34003448
:0E0D3400543465346D3470343A342034003455
:100D4200543465346D3470346534723461347434BF
:080D520075347234653400347D
:100D5A00483475346D34693464343A342034003498
:0A0D6A0048346934673468340034FB
:100D74007C347C345434653461346D3420344934E7
:100D84006E346634653472346E346F347C347C343F
:020D9400003429
:100D960050346C34653461347334653420345734DC
:100DA6006134693474342E342E342E342E34203487
:020DB600003407
:100DB80046346C3461346D346534203444346534DD
:100DC80074346534633474346534643420340D34D5
:040DD8000A340034A5
:100DDC0047346134733420344434653474346534AA
:0A0DEC006334743465346434003459
:100DF6004734613473342034443465347434653490
:100E0600633474346534643420340D340A34003465
:100E16004434653476346934633465342034493473
:100E26006E3469347434693461346C3469347A34B8
:060E360065346434003451
:100E3C00213421345734613472346E3469346E3455
:080E4C00673421342134003425
:100E5400573465346C3463346F346D346534213401
:020E6400003458
:100E66004E346F34203446346C3461346D3465341A
:020E7600003446
:020E78000F3435
:02400E004A2F37
:00000001FF
